:020000040800F2
:10000000E0480020950500080506000805060008E0
:1000100005060008050600080506000800000000A7
:1000200000000000000000000000000005060008BD
:100030000506000800000000050600080506000887
:100040000506000805060008050600080506000864
:1000500005060008050600083D26000805060008FC
:100060000506000805060008050600080506000844
:100070000506000805060008050600080506000834
:100080000506000805060008050600080506000824
:100090000506000805060008050600080506000814
:1000A0000506000805060008050600080506000804
:1000B00005060008050600080506000805060008F4
:1000C00005060008050600080506000805060008E4
:1000D00005060008351F000805060008050600088B
:1000E00005060008050600080506000805060008C4
:1000F00005060008050600080506000805060008B4
:1001000005060008050600080506000805060008A3
:100110000506000805060008050600080506000893
:100120000506000805060008050600080506000883
:100130000506000805060008050600080506000873
:100140000506000805060008050600080506000863
:100150000506000805060008050600080506000853
:100160000506000805060008050600080506000843
:100170000506000805060008050600080506000833
:10018000050600080506000890B484B000AF0246DA
:100190000B46FA71BB710023FB60BB7903F00303CC
:1001A0009B000F2202FA03F3FB60154BBA79920809
:1001B000D2B21349B8798008C0B2023051F8200099
:1001C000F968C9430140023243F822100C4BBA7956
:1001D0009208D2B20A49B8798008C0B2023051F808
:1001E0002000FC79B97901F00301890004FA01F1DA
:1001F0000143023243F822101037BD4690BC7047CD
:100200000038014080B58AB000AF786039600023C3
:100210007B6200233B620023FB610023BB617B68A0
:100220001B8A9BB27B627B6A23F440537B623B68F0
:10023000DB887A6A13437B627B6A9AB27B681A8294
:100240007B689B899BB27B627B6A23F4B05323F06B
:100250000C037B623B689A883B681B8913439AB204
:100260003B685B8913439BB27A6A13437B627B6A68
:100270009AB27B689A817B689B8A9BB27B627B6A1D
:1002800023F440737B623B689B897A6A13437B62E9
:100290007B6A9AB27B689A8207F10803184600F0DD
:1002A000EDF97A68314B9A4203D07A68304B9A4222
:1002B00002D17B693B6201E03B693B627B689B89C1
:1002C0009BB29BB21BB2002B0CDA3A6A13469B001E
:1002D00013449A001A443B681B685B00B2FBF3F3BB
:1002E000FB610BE03A6A13469B0013449A001A44E0
:1002F0003B681B689B00B2FBF3F3FB61FA691D4B83
:10030000A3FB02135B091B017B627B6A1B0964224E
:1003100002FB03F3FA69D31ABB617B689B899BB22A
:100320009BB21BB2002B0DDABB69DB0003F132027A
:10033000104BA3FB02135B0903F007037A6A134314
:100340007B620CE0BB691B0103F13202094BA3FB8A
:1003500002135B0903F00F037A6A13437B627B6A23
:100360009AB27B681A812837BD4680BD00100140D3
:10037000001401401F85EB5180B483B000AF78605A
:100380000B46FB70FB78002B08D07B689B899BB2E7
:1003900043F400539AB27B689A8107E07B689B899B
:1003A0009BB223F400539AB27B689A810C37BD4606
:1003B0005DF8047B704700BF80B483B000AF786005
:1003C0000B467B807B88C3F308039AB27B689A80D4
:1003D0000C37BD465DF8047B704700BF80B483B026
:1003E00000AF78607B689B889BB2C3F308039BB225
:1003F00018460C37BD465DF8047B704780B487B063
:1004000000AF786013460A467A807B7000233B6118
:100410000023FB600023BB6000237B617B687B6162
:100420007B88DBB25B09DBB23B617B8803F01F0397
:10043000FB60FB68012202FA03F3BB603B69012BFE
:1004400003D17B690C337B6109E03B69022B03D14B
:100450007B6910337B6102E07B6914337B617B78BD
:10046000002B06D07B697A691168BA680A431A6062
:1004700006E07B697A691168BA68D2430A401A605B
:100480001C37BD465DF8047B704700BF80B485B063
:1004900000AF78600B467B800023FB737B681B8872
:1004A0009AB27B8813409BB2002B02D00123FB73CE
:1004B00001E00023FB73FB7B18461437BD465DF853
:1004C000047B704780B487B000AF78600B467B80B8
:1004D0000023FB6000237B610023BB600023FB74CF
:1004E0007B88DBB25B09DBB2BB607B8803F01F0358
:1004F0007B617B69012202FA03F37B61BB68012BFC
:1005000006D17B689B899BB27A6913407B610FE0BF
:10051000BB68022B06D17B681B8A9BB27A691340A9
:100520007B6105E07B689B8A9BB27A6913407B61A3
:100530007B881B0A9BB2FB60FB68012202FA03F373
:10054000FB607B681B889BB2FA681340FB607B6989
:10055000002B05D0FB68002B02D00123FB7401E0C7
:100560000023FB74FB7C18461C37BD465DF8047BFA
:10057000704700BF80B483B000AF0346FB71044BEB
:10058000FA791A600C37BD465DF8047B704700BFEE
:1005900020000E4280B582B000AF144B7B60144B3C
:1005A0003B6007E03B681A1D3A607A68111D79606C
:1005B00012681A603A680F4B9A42F3D30E480F49FB
:1005C0004FF000028842B8BF40F8042BFFF6FAAFA4
:1005D000DFF82C00016841F47001016001F056FA67
:1005E00000F014F80837BD4680BD00BFF4AA00082B
:1005F000000000207000002070000020DC4000207F
:1006000088ED00E080B400AFFEE700BF80B500AF2A
:1006100000F0C0FA00F0F4FA00F02EFB4FF4165090
:1006200001F0DAFC00F06EFD02F014F809480A4906
:1006300001F02CFD002000F0BDFC0020002100F0A6
:1006400039FD0020052100F095F900F0EDF90123B6
:10065000184680BD00100140C826000880B483B051
:1006600000AF0346FB71044BFA791A600C37BD46A4
:100670005DF8047B704700BF800E474280B489B0AC
:1006800000AF78600023BB6100237B610023FB6126
:1006900002233B610023FB600223BB60484B9B6845
:1006A00003F00C03BB61BB69042B07D0082B09D0F6
:1006B000002B3FD17B68434A1A603FE07B68424A87
:1006C0001A603BE03E4B5B6803F480039B0DFB60CC
:1006D0003B4B5B6803F03F03BB60FB68002B0DD016
:1006E000394ABB68B2FBF3F2354B596847F6C07321
:1006F0000B409B0903FB02F3FB610CE0314ABB6832
:10070000B2FBF3F22E4B596847F6C0730B409B09BE
:1007100003FB02F3FB612A4B5B6803F440331B0CC1
:1007200001335B003B61FA693B69B2FBF3F27B6822
:100730001A6003E07B68234A1A6000BF204B9B6865
:1007400003F0F003BB61BB691B09BB611F4ABB69B6
:1007500013441B78DBB27B617B681A687B69DA40E3
:100760007B685A60164B9B6803F4E053BB61BB691E
:100770009B0ABB61154ABB6913441B78DBB27B61E2
:100780007B685A687B69DA407B689A600C4B9B688F
:1007900003F46043BB61BB695B0BBB610B4ABB6984
:1007A00013441B78DBB27B617B685A687B69DA4053
:1007B0007B68DA602437BD465DF8047B704700BF74
:1007C000003802400059000100127A0000000020A9
:1007D00080B485B000AF78600023FB607B6803F4D1
:1007E0004073B3F5407F11D10F4B9B68FB60FB68F2
:1007F00023F4F813FB607B6823F0704323F4407309
:10080000FA681343FB60084BFA689A60064B064A85
:10081000116F7A68C2F30B020A431A671437BD4698
:100820005DF8047B704700BF0038024080B483B09D
:1008300000AF0346FB71044BFA791A600C37BD46D2
:100840005DF8047B704700BF3C0E474280B483B024
:1008500000AF78600B46FB70FB78002B06D0094B8D
:10086000084A116B7A680A431A6306E0054B054A89
:10087000116B7A68D2430A401A630C37BD465DF8A3
:10088000047B70470038024080B483B000AF7860CA
:100890000B46FB70FB78002B06D0094B084A116C05
:1008A0007A680A431A6406E0054B054A116C7A68B7
:1008B000D2430A401A640C37BD465DF8047B70478A
:1008C0000038024080B483B000AF78600B46FB7004
:1008D000FB78002B06D0094B084A516C7A680A4312
:1008E0005A6406E0054B054A516C7A68D2430A40C7
:1008F0005A640C37BD465DF8047B704700380240EF
:1009000080B487B000AF0346FB710023FB60002377
:100910007B610023FB74FB795B09DBB2FB60FB6846
:10092000012B03D1124B1B687B6109E0FB68022B92
:1009300003D10F4B1B6F7B6102E00D4B5B6F7B6143
:10094000FB7903F01F03FB60FB687A6922FA03F36B
:1009500003F00103002B02D00123FB7401E000230C
:10096000FB74FB7C18461C37BD465DF8047B704762
:100970000038024080B58AB000AF786039604FF02F
:1009800080500121FFF780FF0120FFF7F3FD0120D8
:10099000FFF764FE00BF6120FFF7B2FF0346002BA4
:1009A000F9D04FF40070FFF713FFFF237B627F2322
:1009B0003B620120FFF73AFF01F00EFC002044F2F9
:1009C000213101F0E9FD174A7B6813441B783B7421
:1009D000144A3B6813441B787B740023BB740723C1
:1009E0007B732723BB731423FB7307233B733B6A7F
:1009F000BB617B6AFB6100237B6107F1140318462E
:100A000001F066FB07F110030120194601F020FCFC
:100A100007F10C030120194601F0EAFC2837BD4616
:100A200080BD00BF1000002080B592B002AF07F17A
:100A300038030020194601F08DFC97F83A30092B55
:100A400009D897F83A3007F1240210464C491A4663
:100A500000F016FF08E097F83A3007F1240210463C
:100A600048491A4600F00CFF07F1380300201946E8
:100A700001F070FC97F83930092B09D897F8393014
:100A800007F1140210463E491A4600F0F9FE08E04C
:100A900097F8393007F1140210463A491A4600F027
:100AA000EFFE07F138030020194601F053FC97F8D8
:100AB0003830092B08D897F838303A1D104630499D
:100AC0001A4600F0DDFE07E097F838303A1D104670
:100AD0002C491A4600F0D4FE07F114034FF6FF72BA
:100AE000009200220192184646211422012300F0B0
:100AF00033FA4FF6FF730093002301932248372106
:100B00001422012300F028FA3B1D4FF6FF720092D9
:100B100000220192184619211422012300F01CFA28
:100B200007F124034FF6FF7200920022019218464B
:100B300014212D22032300F00FFA07F134030020C3
:100B4000194601F0DBFC97F834301A460F4B53F886
:100B50002230002200924FF6FF72019218461E21A9
:100B60006422012300F0F8F90023FB6302E0FB6B31
:100B70000133FB63FA6B064B9A42F8DD57E700BF7F
:100B8000282700082C2700083027000850000020E4
:100B90005FE3160080B500AF164B164A126B42F0A9
:100BA00002021A63144B16221A60134B01221A71A7
:100BB000114B00229A71104B0022DA710E4B012268
:100BC0005A710E480C4900F071FE0B4B28221A6036
:100BD000094B02221A710948074900F067FE0748CD
:100BE0000321062200F00CFF04480521062200F034
:100BF00007FF80BD00380240C4000020000402400E
:100C000080B500AF184B00221A60184A164B9A6044
:100C1000154B174A5A60144B00221A62124B0022DD
:100C2000DA61114B4022DA600F4B00225A620E4B00
:100C30004FF480629A610C4B00225A610A4B4FF4C8
:100C400080421A61084B4FF400329A62064B002230
:100C50005A63054B00229A63034B0022DA6205486F
:100C6000014900F061FF80BD74000020CC0000202D
:100C70000C3C00408860024080B500AF154B154A1F
:100C8000126C42F400421A64134B00229A81124BF8
:100C900000221A81104B0022DA800F4B00229A802A
:100CA0000D4B0022DA810C4B4FF482725A800A4BB2
:100CB0004FF400725A810948074900F08BFF07483A
:100CC000012100F0CBFF05480221012200F0F4FFD2
:100CD00080BD00BF00380240B0000020003C004052
:100CE00080B582B000AF0346FB800A48102100F0B7
:100CF00079FEFB880848194600F0D0FF00BF06487F
:100D0000802100F0FDFF0346012BF8D00837BD46D7
:100D100080BD00BF00040240003C004080B582B0AE
:100D200000AF0346FB800A48102100F04DFEFB880F
:100D30000848194600F0B2FF00BF0648802100F0C5
:100D4000DFFF0346012BF8D00837BD4680BD00BF4A
:100D500000040240003C004080B582B000AF034672
:100D6000FB801148102100F02FFEFB881B0A9BB26C
:100D70000E48194600F092FF00BF0C48802100F099
:100D8000BFFF0346012BF8D0FB880848194600F046
:100D900085FF00BF0548802100F0B2FF0346012B0C
:100DA000F8D00837BD4680BD00040240003C00403A
:100DB00080B582B000AFF871B9717A713B712A20A9
:100DC000FFF78EFF0020FFF7A9FFFB799BB21846C3
:100DD000FFF7A4FF0020FFF7A1FF7B799BB2184625
:100DE000FFF79CFF2B20FFF77BFF0020FFF796FF0C
:100DF000BB799BB220339BB21846FFF78FFF0020D0
:100E0000FFF78CFF3B799BB220339BB21846FFF76C
:100E100085FF2C20FFF764FF0837BD4680BD00BF6B
:100E200080B584B000AFF88079713A71FB70FB88AF
:100E3000203BFB80FB881A4692001344FB80FB7822
:100E40001A4692001344DAB27B791344DBB20633BC
:100E5000DAB2FB78DB00D9B23B790B44DBB2073363
:100E6000DBB278793979FFF7A3FF0023BB813CE03F
:100E70000023FB812DE0FA89FB78013392FBF3F329
:100E80007B81BA89FB78013392FBF3F33B81F989CB
:100E9000FB785A1C13469B001344994212DAFA88D5
:100EA0007B891A441D4B33F812301A463B8942FAAB
:100EB00003F303F00103002B04D03B8B184600F032
:100EC000EDF803E0BB8B184600F0E8F8FB8901332E
:100ED000FB81F989FB785A1C13469B0013440233AB
:100EE0009942C8DBBB890133BB81BA89FB780133E6
:100EF000DB009A42BCDB7B799AB2FB7801339BB270
:100F0000194689000B449BB213449BB202339BB237
:100F10009BB21BB218461037BD4680BD342700086F
:100F200080B485B000AF78600023FB600123FB72C2
:100F300007E07A68FB6813441B78FB72FB68013397
:100F4000FB60FB7A002BF4D1FB68013B1846143799
:100F5000BD465DF8047B704790B587B002AF7860FE
:100F6000F970BA707B707868FFF7DAFF0346BB73DD
:100F70000023FB7312E0FB7B7A6813441B7818464E
:100F8000F978BA787B783C8C0094BC8C0194FFF79C
:100F900047FF0346FB70FB7B0133FB73FA7BBB7B94
:100FA0009A42E8D3FB789BB21BB218461437BD4671
:100FB00090BD00BF80B584B000AF0346FB80002029
:100FC00000217F227F23FFF7F3FE0023FB815FE0F8
:100FD0000023BB8156E0FB8841F6BF52934244D0C8
:100FE000B3F5EE5F0DDA102B23D0102B02DC002BB3
:100FF0001BD044E0B3F5806F29D0B3F5826F2BD0BE
:101000003DE048F2100293421CD048F21002934295
:1010100003DCB3F5004F10D031E0B3F5044F20D01E
:101020004FF6FF72934225D029E00020FFF794FE8F
:1010300025E01020FFF790FE21E04FF40040FFF77D
:101040008BFE1CE048F21000FFF786FE17E04FF41D
:101050008060FFF781FE12E04FF48260FFF77CFEB4
:101060000DE04FF40440FFF777FE41F6BF50FFF765
:1010700073FE04E04FF6FF70FFF76EFE00BFBB8902
:101080000133BB81BB897F2BA5D9FB890133FB8150
:10109000FB897F2B9CD91037BD4680BD80B582B0BF
:1010A00000AF0346FB80FB881846FFF755FE083764
:1010B000BD4680BD80B584B000AF02460B46FA71D4
:1010C000BB714FF48043FB600123BB600020002113
:1010D00080228023FFF76CFE09E0094BBA6833F8E1
:1010E00012301846FFF738FEBB680133BB60FB685F
:1010F0005A1EFA60002BF0D11037BD4680BD00BFEC
:10110000F42A000880B582B000AF8B48042100F0BB
:1011100069FC00237B6002E07B6801337B607A68B6
:101120004CF24F339A42F7DD8348042100F04CFC27
:1011300000237B6002E07B6801337B607A684CF2BD
:101140004F339A42F7DD7C48022100F04BFC00232C
:101150007B6002E07B6801337B607A684CF24F333E
:101160009A42F7DD0120FFF7BBFD00237B6002E020
:101170007B6801337B607A684CF24F339A42F7DD2B
:101180001120FFF7ADFD00237B6002E07B68013397
:101190007B607A6842F20F739A42F7DD2620FFF7F0
:1011A0009FFD0420FFF7BAFD00237B6002E07B680F
:1011B00001337B607A6841F287339A42F7DDC020C1
:1011C000FFF78EFD1F20FFF7A9FD00237B6002E0E3
:1011D0007B6801337B607A6841F287339A42F7DD9E
:1011E000C120FFF77DFD0020FFF798FD00237B6005
:1011F00002E07B6801337B607A6841F287339A4270
:10120000F7DDC220FFF76CFD0020FFF787FD072008
:10121000FFF784FD00237B6002E07B6801337B6085
:101220007A6841F287339A42F7DDC320FFF758FD11
:101230000020FFF773FD0720FFF770FD00237B60A0
:1012400002E07B6801337B607A6841F287339A421F
:10125000F7DDC520FFF744FD2420FFF75FFDC82020
:10126000FFF75CFD00237B6002E07B6801337B605D
:101270007A6841F287339A42F7DD3820FFF730FD74
:1012800000237B6002E07B6801337B607A6841F277
:1012900087339A42F7DD3A20FFF722FD0520FFF75A
:1012A0003DFD00237B6002E07B6801337B607A6850
:1012B00041F287339A42F7DD3620FFF711FD08200F
:1012C000FFF72CFD00237B6002E07B6801337B602D
:1012D0007A6841F287339A42F7DD2920FFF700FD53
:1012E00000237B6002E07B6801337B607A6841F217
:1012F00087339A42F7DD2C20FFF7F2FC00237B6056
:1013000002E07B6801337B607A6841F287339A425E
:10131000F7DD0020FFF74EFE00237B6002E07B68D4
:1013200001337B607A6841F287339A42F7DD00BF70
:101330000837BD4680BD00BF0004024080B483B0C2
:1013400000AF78600B46FB707B68FA781A70012357
:1013500018460C37BD465DF8047B704780B485B0F5
:1013600000AF786039600023FB600AE07B685A1C9C
:101370007A603A68511C396012781A70FB68013340
:10138000FB603B681B78002BF0D1FB6818461437D4
:10139000BD465DF8047B704780B586B000AFF8604D
:1013A0007A603B600B46FB7200237B617B68013BEC
:1013B0007B603B68092B10D93A681E4BA3FB0213D4
:1013C000DB08FA7AF86811467A68FFF7E5FF78617A
:1013D0007B69FA681344FB6011E00DE0FB7AF86862
:1013E0001946FFF7ABFFFB680133FB607B690133F4
:1013F0007B617B68013B7B607B68002BEEDC39689E
:101400000C4BA3FB0123DA0813469B0013445B003B
:10141000CA1AD3B23033DBB2F8681946FFF78EFF31
:1014200003467A6913447B617B6918461837BD46C9
:1014300080BD00BFCDCCCCCC80B586B000AFF8600D
:101440007A603B600B46FB7200237B613B68002B9C
:1014500003DA3B685B423B6101E03B683B617B68D0
:10146000013B7B603B69092B21D93B68002B0DDADE
:101470003A692F4BA3FB0213DB085B42FA7AF86848
:1014800011467A68FFF7D8FF78610BE03A69284B7C
:10149000A3FB0213DB08FA7AF86811467A68FFF7B3
:1014A000CBFF78617B69FA681344FB6026E03B68F8
:1014B000002B03DA7B68013B7B600EE00DE0FB7ADA
:1014C000F8681946FFF73AFFFB680133FB607B6958
:1014D00001337B617B68013B7B607B68002BEEDC2A
:1014E0003B68002B0ADAF8682D21FFF727FF034637
:1014F0007A6913447B61FB680133FB6039690C4BEB
:10150000A3FB0123DA0813469B0013445B00CA1AAD
:10151000D3B23033DBB2F8681946FFF70FFF03464A
:101520007A6913447B617B6918461837BD4680BDD4
:10153000CDCCCCCC80B588B002AFF8607A600A46DA
:10154000FA72BB7200237B617B68013B7B603B6A64
:101550001B09002B12D03B6A1909FA7ABB7A009159
:10156000F86811467A68FFF7E5FF03467A69134485
:101570007B617B69FA681344FB6011E00DE0FB7A44
:10158000F8681946FFF7DAFEFB680133FB607B69F8
:1015900001337B617B68013B7B607B68002BEEDC69
:1015A0003B6A03F00F03092B0BD83B6ADBB203F055
:1015B0000F03DBB23033DBB2F8681946FFF7BEFE2B
:1015C00019E0BB7A002B0BD03B6ADBB203F00F03B0
:1015D000DBB23733DBB2F8681946FFF7AFFE0AE03B
:1015E0003B6ADBB203F00F03DBB25733DBB2F868C0
:1015F0001946FFF7A3FE7B6901337B617B691846BF
:101600001837BD4680BD00BF80B58AB002AFF86014
:10161000B9607A603B600023BB6100237B61FB689B
:10162000002B03D0FB6800221A70F8E0F7E07B681B
:101630001B78252B0BD0FB685A1CFA607A68511C6A
:10164000796012781A707B6901337B61E7E07B680F
:1016500001331B78252B0BD1FB685A1CFA6025221D
:101660001A707B6802337B607B6901337B61D6E053
:101670002023FB770023BB777B6801337B607B688B
:101680001B78302B05D13023FB777B6801337B60DF
:101690000FE00EE0BB7F1A46920013445B00DAB203
:1016A0007B681B781344DBB2303BBB777B6801332C
:1016B0007B607B681B782F2B03D97B681B78392BC9
:1016C000E8D9BA7F7B6913441A46BB689A4205D9A8
:1016D000BB68DAB27B69DBB2D31ABB777B681B7855
:1016E000583B202B00F28D8001A252F823F000BF5E
:1016F000BD170008031800080318000803180008A5
:10170000031800080318000803180008031800084D
:10171000031800080318000803180008ED17000854
:1017200075170008031800080318000803180008BC
:1017300003180008751700080318000803180008AC
:10174000031800080318000803180008031800080D
:10175000031800080318000803180008D917000828
:10176000031800088B170008031800080318000866
:10177000A1170008BA7F3B68191D39601B68F97F03
:10178000F868FFF759FEB8613EE0BA7F3B68191D63
:1017900039601B68F97FF868FFF7FEFDB86133E038
:1017A000BA7F3B68191D39601968FB7F0091F868A2
:1017B00019460023FFF7BEFEB86125E0BA7F3B68FB
:1017C000191D39601968FB7F0091F86819460123DB
:1017D000FFF7B0FEB86117E03B681A1D3A601B685E
:1017E000F8681946FFF7BAFDB8610DE03B681A1DAD
:1017F0003A601B68DBB2F8681946FFF79FFDB861D5
:1018000002E04FF0FF3325E07B6801337B60BB696A
:10181000FA681344FB607A69BB6913447B617B6897
:101820001B78002B04D07A69BB689A42FFF4FFAEA4
:101830007A69BB689A4203D2FB6800221A7008E0FA
:10184000FB68013BFB60FB6800221A707B69013B6F
:101850007B617B6918462037BD4680BD80B584B06A
:1018600000AFF860B9607A60F8686421BA687B6894
:10187000FFF7CAFE034618461037BD4680BD00BFBD
:101880000EB480B585B000AF786007F12003BB606F
:101890007868F969BA68FFF7E1FFF860FB681846F5
:1018A0001437BD46BDE8804003B0704780B487B0B0
:1018B00000AF7860396000237B6100233B61002327
:1018C000FB6000237B6176E07B69012202FA03F36F
:1018D0003B613B681A683B691340FB60FA683B69EF
:1018E0009A4265D17B681A687B695B00032101FA23
:1018F00003F3DB431A407B681A607B681A683B6815
:101900001B7919467B695B0001FA03F31A437B6874
:101910001A603B681B79012B03D03B681B79022BB3
:101920002ED17B689A687B695B00032101FA03F37F
:10193000DB431A407B689A607B689A683B685B79F6
:1019400019467B695B0001FA03F31A437B689A60CE
:101950007B685A687B699BB2012101FA03F3DB4380
:101960001A407B685A607B685A683B689B791946C5
:101970007B699BB201FA03F39BB21A437B685A60FE
:101980007B68DA687B699BB25B00032101FA03F391
:10199000DB431A407B68DA607B68DA683B68DB7996
:1019A00019467B695B0001FA03F31A437B68DA602E
:1019B0007B6901337B617B690F2B85D91C37BD4661
:1019C0005DF8047B704700BF80B483B000AF7860DF
:1019D0000B467B807B687A881A830C37BD465DF89E
:1019E000047B704780B483B000AF78600B467B8087
:1019F0007B687A885A830C37BD465DF8047B704754
:101A000080B485B000AF786013460A467A807B7058
:101A10000023FB600023BB607A787B8803F0070318
:101A20009B0002FA03F3FB607B88DB089BB21A463B
:101A30007B88DB089BB219467B68083153F821107C
:101A40007B8803F007039B000F2000FA03F3DB43BE
:101A500019407B68083243F822107B88DB089BB270
:101A60001A467B68083253F82220FB681343BB6098
:101A70007B88DB089BB21A467B680832B96843F85A
:101A800022101437BD465DF8047B704780B500AF67
:101A9000154B154AD2F8882042F47002C3F888200A
:101AA000124B124A126842F001021A600F4B0022D8
:101AB0009A600E4A0D4B1B6823F0847323F4803325
:101AC00013600A4B0A4A5A60084B084A126822F40B
:101AD00080221A60054B0022DA6000F00BF8024BFE
:101AE0004FF000629A6080BD00ED00E000380240D7
:101AF0001030002480B400AF094B4FF4C0621A606C
:101B0000084B084A92689A60064B064A92689A60A7
:101B1000044B044A92689A60BD465DF8047B7047A6
:101B2000003C02400038024080B485B000AF7860CD
:101B300039600023FB607B681B68FB60FA68244BFC
:101B40001340FB603B681A683B68DB681A433B68DC
:101B50005B691A433B689B691A433B68DB691A431C
:101B60003B681B6A1A433B685B6A1A433B689B6A83
:101B70001A433B685B6B1A433B689B6B1343FA68E1
:101B80001343FB607B68FA681A607B685B69FB60E3
:101B9000FB6823F00703FB603B68DA6A3B681B6B5A
:101BA0001343FA681343FB607B68FA685A613B6829
:101BB0001A697B685A603B685A687B689A603B6820
:101BC0009A687B68DA601437BD465DF8047B70471D
:101BD0003F801CF080B485B000AF7860396000238E
:101BE000FB817B681B88FB81FB8903F44153FB81EC
:101BF0003B681A883B685B8813439AB23B689B88B2
:101C000013439AB23B68DB8813439AB23B681B8943
:101C100013439AB23B685B8913439AB23B689B8932
:101C200013439AB23B68DB8913439AB2FB8913438F
:101C3000FB817B68FA891A807B689B8B9BB223F4BB
:101C400000639AB27B689A833B681A8A7B681A821F
:101C50001437BD465DF8047B704700BF80B483B085
:101C600000AF78600B46FB70FB78002B08D07B68D8
:101C70001B889BB243F040039AB27B681A8007E04E
:101C80007B681B889BB223F040039AB27B681A8062
:101C90000C37BD465DF8047B704700BF80B483B04D
:101CA00000AF78600B467B807B687A889A810C371E
:101CB000BD465DF8047B704780B483B000AF7860A8
:101CC00013460A467A807B707B78002B08D07B68AD
:101CD0009B889AB27B8813439AB27B689A8009E00A
:101CE0007B689B889AB27B88DB439BB213409AB295
:101CF0007B689A800C37BD465DF8047B704700BF57
:101D000080B485B000AF78600B467B800023FB7306
:101D10007B681B899AB27B8813409BB2002B02D050
:101D20000123FB7301E00023FB73FB7B1846143790
:101D3000BD465DF8047B704780B485B000AF786025
:101D40000023FB60324BFB607B689B79002B4DD0FE
:101D50002F4B2F4A11687A681268D2430A401A60E2
:101D60002B4B2B4A51687A681268D2430A405A605A
:101D70007B681B79FA681344FB60FB68FA6811689A
:101D80007A6812680A431A60214B214A91687A687E
:101D90001268D2430A409A601D4B1D4AD1687A6886
:101DA0001268D2430A40DA607B685B79102B0ED14F
:101DB000174B174A91687A6812680A439A60144B65
:101DC000134AD1687A6812680A43DA601BE0104B44
:101DD000FB607B685B79FA681344FB60FB68FA6818
:101DE00011687A6812680A431A600CE07B681B79F4
:101DF000FA681344FB60FB68FA6811687A68126835
:101E0000D2430A401A601437BD465DF8047B704720
:101E1000003C014080B485B000AF78600023FB73C4
:101E20000023BB600C4B1A687B681340BB600A4BF5
:101E30005A697B681340002B05D0BB68002B02D089
:101E40000123FB7301E00023FB73FB7B184614376F
:101E5000BD465DF8047B7047003C014080B483B010
:101E600000AF7860034B7A685A610C37BD465DF865
:101E7000047B7047003C014080B485B000AF7860BF
:101E80000023FB730023BB730F237B737B68DB781A
:101E9000002B37D0254BDB68DB4303F4E0631B0AE0
:101EA000FB73FB7BC3F10403BB737A7BFB7B42FABE
:101EB00003F37B737B685B781A46BB7B02FA03F300
:101EC000FB737B689A787B7B1340DAB2FB7B13430E
:101ED000FB73FB7B1B01FB73154A7B681B78134468
:101EE000FA7B83F80023124B7A6812785209D2B237
:101EF0007968097801F01F01012000FA01F143F827
:101F000022100EE00A4B7A6812785209D2B2796830
:101F1000097801F01F01012000FA01F1203243F895
:101F200022101437BD465DF8047B704700ED00E0D9
:101F300000E100E080B584B000AF244840F22551B4
:101F4000FEF7C0FA0346002B3DD000BF1F4840F209
:101F50002551FEF7B7FA0346002BF7D01B48FEF7D2
:101F60003DFA0346FB6061231A46FB689A421DD185
:101F7000174B1A6813469B0013445B001A46144B18
:101F80005B681344BB60124B9A6813469B00134472
:101F90005B001A460E4BDB6813447B60B8687968B7
:101FA000FEF7E8FC0B4B00221A600CE0094B1A68A4
:101FB000FB68303B1946064B43F82210054B1B6863
:101FC0005A1C044B1A601037BD4680BD00100140FA
:101FD000CC4000207000002080B58AB000AF78604F
:101FE00010200121FEF76EFC02200121FEF72EFCDD
:101FF000C0233B62022387F82430022387F8253070
:10200000002387F82630012387F8273007F12003C3
:102010001C481946FFF74AFC1A4806210722FFF719
:10202000EFFC184807210722FFF7EAFC7B683B61B9
:102030000023BB820023FB8200233B830023BB835E
:102040000C237B8307F110030F481946FEF7DAF8DB
:102050000D4840F225510122FEF7D0F925233B73AC
:1020600000237B730023BB730123FB7307F10C0375
:102070001846FFF701FF04480121FEF77DF92837D4
:10208000BD4680BD000402400010014080B582B012
:1020900000AF7860396012E000BF78688021FEF7F9
:1020A000F5F90346002BF8D03B681B78DBB2786863
:1020B0001946FEF781F93B685A1C3A601B783B6869
:1020C0001B78DBB2002BE7D10837BD4680BD00BFCF
:1020D00080B584B000AF78600023FB73194BCA222F
:1020E0005A62184B53225A6200F02EF80346002B16
:1020F00002D10023FB731CE0124B124A926822F0BB
:1021000040029A600F4B0F4A91687A6812680A433E
:102110009A600C4B7A6892681A610A4B094A1169F5
:102120007A68526812040A431A6100F047F80123E2
:10213000FB73044BFF225A62FB7B18461037BD46E7
:1021400080BD00BF0028004080B485B000AF0023F0
:102150007B600023FB730023BB60174BDB6803F03D
:102160004003002B1ED1144B4FF0FF32DA60124BAC
:10217000DB6803F04003BB607B6801337B607B68F6
:10218000B3F5803F02D0BB68002BF0D00A4BDB6870
:1021900003F04003002B02D00123FB7304E0002373
:1021A000FB7301E00123FB73FB7B18461437BD462C
:1021B0005DF8047B704700BF0028004080B400AF8A
:1021C000044B044AD26822F08002DA60BD465DF812
:1021D000047B70470028004080B485B000AF002326
:1021E0007B600023FB730023BB60184BCA225A623A
:1021F000164B53225A62154B144AD26822F0A002A1
:10220000DA60124BDB6803F02003BB607B680133AC
:102210007B607B68B3F5003F02D0BB68002BF0D039
:102220000A4BDB6803F02003002B02D00123FB7371
:1022300001E00023FB73054BFF225A62FB7B18462B
:102240001437BD465DF8047B704700BF002800408E
:1022500090B585B000AF786039600023FB60002343
:10226000FB727B68002B09D1394B9B6803F040035C
:10227000002B14D13B680022DA7010E0344B9B68CD
:1022800003F04003002B07D03B681B78184600F092
:10229000B9F90346FB6002E03B680022DA707B6814
:1022A000002B0FD03B681B781A043B685B781B023D
:1022B0001A433B689B781A433B68DB781B04134343
:1022C000FB601BE03B681B78184600F07DF9034675
:1022D0001C043B685B78184600F076F903461B0245
:1022E0001C433B689B78184600F06EF9034644EAAD
:1022F00003023B68DB781B041343FB60144BCA22C8
:102300005A62134B53225A62FFF71EFF0346002BFB
:1023100002D10023FB7212E00D4AFB6803F07F3309
:1023200023F0FE431360FFF749FFFFF755FF034615
:10233000002B02D10023FB7201E00123FB72044B4E
:10234000FF225A62FB7A18461437BD4690BD00BF83
:102350000028004080B584B000AF78603960002369
:10236000FB60224B1B6803F07F3323F0FE43FB60CE
:10237000FB6803F47C131B0CDAB23B681A70FB6831
:1023800003F4FE431B0ADAB23B685A70FB68DBB207
:1023900003F07F03DAB23B689A70FB6803F48003B2
:1023A0001B0CDAB23B68DA707B68002B1AD13B68F1
:1023B0001B78184600F026F903461A463B681A7047
:1023C0003B685B78184600F01DF903461A463B68E7
:1023D0005A703B689B78184600F014F903461A4679
:1023E0003B689A701037BD4680BD00BF0028004092
:1023F00090B585B000AF786039600023FB600023A2
:10240000FB727B68002B0ED13B685B7803F01003F6
:10241000002B08D03B685B7823F01003DBB20A3353
:10242000DAB23B685A707B68002B0DD03B685B7852
:10243000184600F0E7F80346FB603B689B781846B7
:1024400000F0E0F80346FB607B68002B0FD03B6890
:10245000DB781A043B685B781B021A433B689B7865
:102460001A433B681B785B031343FB601BE03B682C
:10247000DB78184600F0A8F803461C043B685B783C
:10248000184600F0A1F803461B021C433B689B78EA
:10249000184600F099F8034644EA03023B681B78AB
:1024A0005B031343FB60144BCA225A62124B532244
:1024B0005A62FFF749FE0346002B02D10023FB724C
:1024C00012E00D4AFB6823F07F4323F0C003536002
:1024D000FFF774FEFFF780FE0346002B02D10023B6
:1024E000FB7201E00123FB72034BFF225A62FB7A6D
:1024F00018461437BD4690BD0028004080B584B012
:1025000000AF786039600023FB60224B5B6823F0EA
:102510007F4323F0C003FB60FB6803F47F031B0CC5
:10252000DAB23B68DA70FB6803F4F8531B0ADAB2DC
:102530003B685A70FB68DBB203F03F03DAB23B68DA
:102540009A70FB6803F460435B0BDAB23B681A7065
:102550007B68002B1AD13B68DB78184600F052F8F4
:1025600003461A463B68DA703B685B78184600F011
:1025700049F803461A463B685A703B689B781846F0
:1025800000F040F803461A463B689A701037BD4683
:1025900080BD00BF0028004080B485B000AF7860E7
:1025A00039600023FB60074BFB607B689A00FB6887
:1025B0001344FB60FB683A681A601437BD465DF847
:1025C000047B70475028004080B485B000AF0346BC
:1025D000FB710023FB7305E0FB7B0133FB73FB798D
:1025E0000A3BFB71FB79092BF6D8FB7B1B01DAB2A6
:1025F000FB791343DBB218461437BD465DF8047B04
:10260000704700BF80B485B000AF0346FB71002364
:10261000FB73FB791B09DBB21A46920013445B0083
:10262000FB73FB7903F00F03DAB2FB7B1344DBB2DD
:1026300018461437BD465DF8047B704780B500AF7F
:102640000120FFF7E7FB0346002B02D00120FFF734
:1026500005FC80BD80B586B000AF01200121FEF7EA
:10266000F5F84FF480400121FEF72CF900233B756B
:102670000023FB7501233B6107F110031148194644
:10268000FFF714F900200021FDF77EFD0123BB6058
:1026900000233B7308237B730123BB7307F10803FB
:1026A0001846FFF749FB06233B7101237B71012389
:1026B000BB710123FB713B1D1846FFF7DDFB18378B
:1026C000BD4680BD00000240436F6E6E6563746559
:1026D000642E2057656C636F6D652100486F6C64D4
:1026E000657200004D4F4E4441590000545545530A
:1026F000444159005745444E455344415900000058
:102700005448555253444159000000004652494430
:1027100041590000534154555244415900000000B2
:1027200053554E4441590000302564002564000093
:102730003A0000000000000000000000000000005F
:1027400000005F000000000000000700000007001C
:10275000000014007F0014007F00140024002A00F1
:102760007F002A00120023001300080064006200AA
:10277000360049005500220050000000050003000B
:102780000000000000001C002200410000000000CA
:10279000410022001C00000008002A001C002A0042
:1027A0000800080008003E00080008000000500073
:1027B00030000000000008000800080008000800C1
:1027C0000000600060000000000020001000080011
:1027D000040002003E005100490045003E00000098
:1027E00042007F00400000004200610051004900AB
:1027F00046002100410045004B0031001800140044
:1028000012007F00100027004500450045003900F8
:102810003C004A00490049003000010071000900F5
:102820000500030036004900490049003600060053
:102830004900490029001E00000036003600000053
:1028400000000000560036000000000000000800F4
:10285000140022004100140014001400140014009D
:102860004100220014000800000002000100510095
:102870000900060032004900790041003E007E0058
:102880001100110011007E007F004900490049003D
:1028900036003E0041004100410022007F0041001F
:1028A000410022001C007F0049004900490041000E
:1028B0007F0009000900010001003E0041004100C5
:1028C000510032007F000800080008007F0000006F
:1028D00041007F00410000002000400041003F0017
:1028E00001007F0008001400220041007F0040002A
:1028F0004000400040007F000200040002007F0012
:102900007F000400080010007F003E0041004100ED
:1029100041003E007F0009000900090006003E005A
:102920004100510021005E007F00090019002900CC
:1029300046004600490049004900310001000100FD
:102940007F00010001003F004000400040003F00C8
:102950001F002000400020001F007F002000180002
:1029600020007F00630014000800140063000300CF
:102970000400780004000300610051004900450094
:102980004300000000007F004100410002000400FD
:10299000080010002000410041007F0000000000FE
:1029A000040002000100020004004000400040005A
:1029B0004000400000000100020004000000200070
:1029C00054005400540078007F0048004400440044
:1029D000380038004400440044002000380044001F
:1029E000440048007F003800540054005400180090
:1029F00008007E00090001000200080014005400D5
:102A000054003C007F00080004000400780000002F
:102A100044007D00400000002000400044003D00D4
:102A2000000000007F00100028004400000041006A
:102A30007F00400000007C000400180004007800C3
:102A40007C000800040004007800380044004400C2
:102A5000440038007C001400140014000800080032
:102A60001400140018007C007C000800040004001E
:102A700008004800540054005400200004003F00A7
:102A80004400400020003C004000400020007C004A
:102A90001C002000400020001C003C0040003000D2
:102AA00040003C00440028001000280044000C00B6
:102AB0005000500050003C004400640054004C00A2
:102AC0004400000008003600410000000000000043
:102AD0007F000000000000004100360008000000F8
:102AE000080008002A001C00080008001C002A003A
:102AF00008000800000000000000000000000000C6
:102B000000000000000000000000000000000000C5
:102B100000000000000000000000000000000000B5
:102B200000000000000000000000000000000000A5
:102B30000000000000000000000000000000000095
:102B40000000000000000000000000000000000085
:102B50000000000000000000000000000000000075
:102B60000000000000000000000000000000000065
:102B70000000000000000000000000000000000055
:102B80000000000000000000000000000000000045
:102B90000000000000000000000000000000000035
:102BA0000000000000000000000000000000000025
:102BB0000000000000000000000000000000000015
:102BC0000000000000000000000000000000000005
:102BD00000000000000000000000000000000000F5
:102BE00000000000000000000000000000000000E5
:102BF00000000000000000000000000000000000D5
:102C000000000000000000000000000000000000C4
:102C100000000000000000000000000000000000B4
:102C200000000000000000000000000000000000A4
:102C30000000000000000000000000000000000094
:102C40000000000000000000000000000000000084
:102C50000000000000000000000000000000000074
:102C60000000000000000000000000000000FFFF66
:102C7000FFFF000000000000000000000000000056
:102C80000000000000000000000000000000000044
:102C90000000000000000000000000000000000034
:102CA0000000000000000000000000000000000024
:102CB0000000000000000000000000000000000014
:102CC0000000000000000000000000000000000004
:102CD00000000000000000000000000000000000F4
:102CE00000000000000000000000000000000000E4
:102CF00000000000000000000000000000000000D4
:102D000000000000000000000000000000000000C3
:102D100000000000000000000000000000000000B3
:102D200000000000000000000000000000000000A3
:102D30000000000000000000000000000000000093
:102D40000000000000000000000000000000000083
:102D50000000000000000000000000000000000073
:102D6000000000000000FFFF000000000000FFFF67
:102D70000000FFFF00000000000000000000000055
:102D80000000000000000000000000000000000043
:102D90000000000000000000000000000000000033
:102DA0000000000000000000000000000000000023
:102DB0000000000000000000000000000000000013
:102DC0000000000000000000FFFF0000FFFFFFFF09
:102DD0000000000000000000FFFFFFFFFFFFFFFFFB
:102DE00000000000FFFFFFFFFFFFFFFF00000000EB
:102DF000000000000000000000000000FFFFFFFFD7
:102E0000FFFFFFFFFFFFFFFFFFFFFFFFFFFFFFFFD2
:102E1000FFFF0000000000000000000000000000B4
:102E200000000000000000000000000000000000A2
:102E30000000000000000000000000000000000092
:102E40000000000000000000000000000000000082
:102E50000000000000000000000000000000000072
:102E60000000000000000000FFFF00000000FFFF66
:102E700000000000FFFF0000000000000000000054
:102E80000000000000000000000000000000000042
:102E90000000000000000000000000000000000032
:102EA0000000000000000000000000000000000022
:102EB0000000000000000000000000000000000012
:102EC000000000000000FFFFFFFF00000000FFFF08
:102ED000000000000000FFFF0000000000000000F4
:102EE000FFFF0000000000000000FFFF00000000E6
:102EF000000000000000000000000000FFFF0000D4
:102F000000000000000000000000000000000000C1
:102F1000FFFFFFFF000000000000000000000000B5
:102F200000000000000000000000000000000000A1
:102F30000000000000000000000000000000000091
:102F40000000000000000000000000000000000081
:102F50000000000000000000000000000000000071
:102F600000000000000000000000FFFF0000FFFF65
:102F70000000FFFF00000000000000000000000053
:102F80000000000000000000000000000000000041
:102F90000000000000000000000000000000000031
:102FA0000000000000000000000000000000000021
:102FB0000000000000000000000000000000000011
:102FC00000000000FFFFFFFF000000000000FFFF07
:102FD000000000000000FFFF0000FFFFFFFF0000F7
:102FE000FFFF0000FFFFFFFFFFFFFFFF00000000EB
:102FF000000000000000000000000000FFFF0000D3
:10300000FFFF0000FFFF00000000000000000000C4
:10301000FFFFFFFF000000000000000000000000B4
:1030200000000000000000000000000000000000A0
:103030000000000000000000000000000000000090
:103040000000000000000000000000000000000080
:103050000000000000000000000000000000000070
:10306000000000000000000000000000FFFFFFFF64
:10307000FFFF000000000000000000000000000052
:103080000000000000000000000000000000000040
:103090000000000000000000000000000000000030
:1030A0000000000000000000000000000000000020
:1030B0000000000000000000000000000000000010
:1030C00000000000FFFFFFFF000000000000FFFF06
:1030D000000000000000FFFF0000000000000000F2
:1030E000FFFF0000FFFF00000000000000000000E4
:1030F000000000000000000000000000FFFF0000D2
:10310000FFFF0000FFFF0000FFFF000000000000C5
:10311000FFFFFFFF000000000000000000000000B3
:10312000000000000000000000000000000000009F
:10313000000000000000000000000000000000008F
:10314000000000000000000000000000000000007F
:10315000000000000000000000000000000000006F
:1031600000000000000000000000FFFF0000FFFF63
:103170000000FFFF00000000000000000000000051
:10318000000000000000000000000000000000003F
:10319000000000000000000000000000000000002F
:1031A000000000000000000000000000000000001F
:1031B000000000000000000000000000000000000F
:1031C000000000000000FFFFFFFF00000000FFFF05
:1031D000000000000000FFFF0000000000000000F1
:1031E000FFFF0000FFFF00000000000000000000E3
:1031F000000000000000000000000000FFFF0000D1
:1032000000000000000000000000000000000000BE
:10321000FFFF0000000000000000000000000000B0
:10322000000000000000000000000000000000009E
:10323000000000000000000000000000000000008E
:10324000000000000000000000000000000000007E
:10325000000000000000000000000000000000006E
:103260000000000000000000FFFF00000000FFFF62
:1032700000000000FFFF0000000000000000000050
:10328000000000000000000000000000000000003E
:10329000000000000000000000000000000000002E
:1032A000000000000000000000000000000000001E
:1032B000000000000000000000000000000000000E
:1032C0000000000000000000FFFF0000FFFFFFFF04
:1032D000FFFF000000000000FFFFFFFFFFFFFFFFF8
:1032E00000000000FFFFFFFFFFFFFFFF00000000E6
:1032F000000000000000000000000000FFFFFFFFD2
:10330000FFFFFFFFFFFFFFFFFFFFFFFFFFFFFFFFCD
:10331000FFFF0000000000000000000000000000AF
:10332000000000000000000000000000000000009D
:10333000000000000000000000000000000000008D
:10334000000000000000000000000000000000007D
:10335000000000000000000000000000000000006D
:10336000000000000000FFFF000000000000FFFF61
:103370000000FFFF0000000000000000000000004F
:10338000000000000000000000000000000000003D
:10339000000000000000000000000000000000002D
:1033A000000000000000000000000000000000001D
:1033B000000000000000000000000000000000000D
:1033C00000000000000000000000000000000000FD
:1033D00000000000000000000000000000000000ED
:1033E00000000000000000000000000000000000DD
:1033F00000000000000000000000000000000000CD
:1034000000000000000000000000000000000000BC
:1034100000000000000000000000000000000000AC
:10342000000000000000000000000000000000009C
:10343000000000000000000000000000000000008C
:10344000000000000000000000000000000000007C
:10345000000000000000000000000000000000006C
:103460000000000000000000000000000000FFFF5E
:10347000FFFF00000000000000000000000000004E
:10348000000000000000000000000000000000003C
:10349000000000000000000000000000000000002C
:1034A000000000000000000000000000000000001C
:1034B000000000000000000000000000000000000C
:1036F000000000000000000000000000FFFFFFFFCE
:10370000FFFFFFFFFFFFFFFFFFFFFFFFFFFFFFFFC9
:10371000FFFFFFFFFFFFFFFFFFFFFFFFFFFFFFFFB9
:10372000FFFFFFFFFFFFFFFFFFFFFFFFFFFFFFFFA9
:10373000FFFFFFFFFFFFFFFFFFFFFFFFFFFFFFFF99
:10374000FFFFFFFFFFFFFFFFFFFFFFFFFFFFFFFF89
:10375000FFFFFFFFFFFFFFFFFFFFFFFFFFFFFFFF79
:10376000FFFFFFFFFFFFFFFFFFFFFFFFFFFFFFFF69
:10377000FFFFFFFFFFFFFFFFFFFFFFFFFFFFFFFF59
:10378000FFFFFFFFFFFFFFFFFFFFFFFFFFFFFFFF49
:10379000FFFFFFFFFFFFFFFFFFFFFFFFFFFFFFFF39
:1037A000FFFFFFFFFFFFFFFFFFFFFFFFFFFFFFFF29
:1037B000FFFFFFFFFFFFFFFFFFFFFFFFFFFFFFFF19
:1037C000FFFFFFFFFFFFFFFFFFFFFFFFFFFFFFFF09
:1037D000FFFFFFFFFFFFFFFFFFFFFFFFFFFFFFFFF9
:1037E000FFFFFFFFFFFFFFFFFFFF000000000000E3
:1037F00000000000000000000000000000000000C9
:1038000000000000000000000000000000000000B8
:1038100000000000000000000000000000000000A8
:103820000000000000000000000000000000000098
:1055B000000000000000000000000000000014A532
:1055C00014A5000000000000000000000000000022
:1055D00000000000000000000000000000000000CB
:1055E00000000000000000000000000000000000BB
:1055F00000000000000000000000000000000000AB
:10560000000000000000000000000000000000009A
:10561000000000000000000000000000000000008A
:10562000000000000000000000000000000000007A
:10563000000000000000000000000000000000006A
:10564000000000000000000000000000000000005A
:10565000000000000000000000000000000000004A
:10566000000000000000000000000000000000003A
:10567000000000000000000000000000000000002A
:10568000000000000000000000000000000000001A
:10569000000000000000000000000000000000000A
:1056A00000000000000000000000000000000000FA
:1056B0000000000000000000000000000000DBDE31
:1056C000DBDE000000000000000000000000000021
:1056D00000000000000000000000000000000000CA
:1056E00000000000000000000000000000000000BA
:1056F00000000000000000000000000000000000AA
:105700000000000000000000000000000000000099
:105710000000000000000000000000000000000089
:105720000000000000000000000000000000000079
:105730000000000000000000000000000000000069
:105740000000000000000000000000000000000059
:105750000000000000000000000000000000000049
:105760000000000000000000000000000000000039
:105770000000000000000000000000000000000029
:105780000000000000000000000000000000000019
:105790000000000000000000000000000000000009
:1057A00000000000000000000000000000000000F9
:1057B0000000000000000000000000000000DBDE30
:1057C000DBDE000000000000000000000000000020
:1057D00000000000000000000000000000000000C9
:1057E00000000000000000000000000000000000B9
:1057F00000000000000000000000000000000000A9
:105800000000000000000000000000000000000098
:105810000000000000000000000000000000000088
:105820000000000000000000000000000000000078
:105830000000000000000000000000000000000068
:105840000000000000000000000000000000000058
:105850000000000000000000000000000000000048
:105860000000000000000000000000000000000038
:105870000000000000000000000000000000000028
:105880000000000000000000000000000000000018
:105890000000000000000000000000000000000008
:1058A00000000000000000000000000000000000F8
:1058B0000000000000000000000000000000DBDE2F
:1058C000DBDE00000000000000000000000000001F
:1058D00000000000000000000000000000000000C8
:1058E00000000000000000000000000000000000B8
:1058F00000000000000000000000000000000000A8
:105900000000000000000000000000000000000097
:105910000000000000000000000000000000000087
:105920000000000000000000000000000000000077
:105930000000000000000000000000000000000067
:105940000000000000000000000000000000000057
:105950000000000000000000000000000000000047
:105960000000000000000000000000000000000037
:105970000000000000000000000000000000000027
:105980000000000000000000000000000000000017
:105990000000000000000000000000000000000007
:1059A000000000000000000004218E7320000000B1
:1059B0000000000000000000000000000000DBDE2E
:1059C000DBDE00000000000000000000000000001E
:1059D000000020008E730421000000000000000081
:1059E00000000000000000000000000000000000B7
:1059F00000000000000000000000000000000000A7
:105A00000000000000000000000000000000000096
:105A10000000000000000000000000000000000086
:105A20000000000000000000000000000000000076
:105A30000000000000000000000000000000000066
:105A40000000000000000000000000000000000056
:105A50000000000000000000000000000000000046
:105A60000000000000000000000000000000000036
:105A70000000000000000000000000000000000026
:105A80000000000000000000000000000000000016
:105A90000000000000000000000000000000000006
:105AA00000000000000000008E73FFFF96B520008C
:105AB0000000000000000000000000000000F7BD32
:105AC000F7BD000000000000000000000000000022
:105AD000200096B5FFFF8E7300000000000000005C
:105AE00000000000000000000000000000000000B6
:105AF00000000000000000000000000000000000A6
:105B00000000000000000000000000000000000095
:105B10000000000000000000000000000000000085
:105B20000000000000000000000000000000000075
:105B30000000000000000000000000000000000065
:105B40000000000000000000000000000000000055
:105B50000000000000000000000000000000000045
:105B60000000000000000000000000000000000035
:105B70000000000000000000000000000000000025
:105B80000000000000000000000000000000000015
:105B90000000000000000000000000000000000005
:105BA0000000000000000000200096B5FFFF96B541
:105BB00020000000000000000000000000002000A5
:105BC0002000000000000000000000000000200095
:105BD00096B5FFFF96B52000000000000000000011
:105BE00000000000000000000000000000000000B5
:105BF00000000000000000000000000000000000A5
:105C00000000000000000000000000000000000094
:105C10000000000000000000000000000000000084
:105C20000000000000000000000000000000000074
:105C30000000000000000000000000000000000064
:105C40000000000000000000000000000000000054
:105C50000000000000000000000000000000000044
:105C60000000000000000000000000000000000034
:105C70000000000000000000000000000000000024
:105C80000000000000000000000000000000000014
:105C90000000000000000000000000000000000004
:105CA00000000000000000000000200096B5FFFF8B
:105CB00096B5200000000000000000000000E3187E
:105CC000E31800000000000000000000200096B56E
:105CD000FFFF96B52000000000000000000000005B
:105CE00000000000000000000000000000000000B4
:105CF00000000000000000000000000000000000A4
:105D00000000000000000000000000000000000093
:105D10000000000000000000000000000000000083
:105D20000000000000000000000000000000000073
:105D30000000000000000000000000000000000063
:105D40000000000000000000000000000000000053
:105D50000000000000000000000000000000000043
:105D60000000000000000000000000000000000033
:105D70000000000000000000000000000000000023
:105D80000000000000000000000000000000000013
:105D90000000000000000000000000000000000003
:105DA000000000000000000000000000200096B588
:105DB000FFFFA63100000000CB5AB6B55DEFFFFF34
:105DC000FFFF5DEFB6B5CB5A00000000A631FFFF24
:105DD00096B5200000000000000000000000000058
:105DE00000000000000000000000000000000000B3
:105DF00000000000000000000000000000000000A3
:105E00000000000000000000000000000000000092
:105E10000000000000000000000000000000000082
:105E20000000000000000000000000000000000072
:105E30000000000000000000000000000000000062
:105E40000000000000000000000000000000000052
:105E50000000000000000000000000000000000042
:105E60000000000000000000000000000000000032
:105E70000000000000000000000000000000000022
:105E80000000000000000000000000000000000012
:105E90000000000000000000000000000000000002
:105EA00000000000000000000000000000002000D2
:105EB000A6310000C31875ADFFFFDFFF59CED39C9C
:105EC000D39C59CEDFFFFFFF75ADC3180000A6318C
:105ED00020000000000000000000000000000000A2
:105EE00000000000000000000000000000000000B2
:105EF00000000000000000000000000000000000A2
:105F00000000000000000000000000000000000091
:105F10000000000000000000000000000000000081
:105F20000000000000000000000000000000000071
:105F30000000000000000000000000000000000061
:105F40000000000000000000000000000000000051
:105F50000000000000000000000000000000000041
:105F60000000000000000000000000000000000031
:105F70000000000000000000000000000000000021
:105F80000000000000000000000000000000000011
:105F90000000000000000000000000000000000001
:105FA00000000000000000000000000000000000F1
:105FB0000000C3185DEFFFFF55AD82100000000028
:105FC00000000000821055ADFFFF5DEFC318000018
:105FD00000000000000000000000000000000000C1
:105FE00000000000000000000000000000000000B1
:105FF00000000000000000000000000000000000A1
:106000000000000000000000000000000000000090
:106010000000000000000000000000000000000080
:106020000000000000000000000000000000000070
:106030000000000000000000000000000000000060
:106040000000000000000000000000000000000050
:106050000000000000000000000000000000000040
:106060000000000000000000000000000000000030
:106070000000000000000000000000000000000020
:106080000000000000000000000000000000000010
:106090000000000000000000000000000000000000
:1060A00000000000000000000000000000000000F0
:1060B000000075ADFFFF4D6B000000000000000008
:1060C00000000000000000004D6BFFFF75AD0000F8
:1060D00000000000000000000000000000000000C0
:1060E00000000000000000000000000000000000B0
:1060F00000000000000000000000000000000000A0
:10610000000000000000000000000000000000008F
:10611000000000000000000000000000000000007F
:10612000000000000000000000000000000000006F
:10613000000000000000000000000000000000005F
:10614000000000000000000000000000000000004F
:10615000000000000000000000000000000000003F
:10616000000000000000000000000000000000002F
:10617000000000000000000000000000000000001F
:10618000000000000000000000000000000000000F
:1061900000000000000000000000000000000000FF
:1061A00000000000000000000000000000000000EF
:1061B000CB5AFFFF55AD00000000000000000000BA
:1061C0000000000000000000000055ADFFFFCB5AAA
:1061D00000000000000000000000000000000000BF
:1061E00000000000000000000000000000000000AF
:1061F000000000000000000000000000000000009F
:10620000000000000000000000000000000000008E
:10621000000000000000000000000000000000007E
:10622000000000000000000000000000000000006E
:10623000000000000000000000000000000000005E
:10624000000000000000000000000000000000004E
:10625000000000000000000000000000000000003E
:10626000000000000000000000000000000000002E
:10627000000000000000000000000000000000001E
:10628000000000000000000000000000000000000E
:1062900000000000000000000000000000000000FE
:1062A00000000000000000000000000000000000EE
:1062B000B6B5DFFF82100000000000000000000003
:1062C000000000000000000000008210DFFFB6B5F3
:1062D00000000000000000000000000000000000BE
:1062E00000000000000000000000000000000000AE
:1062F000000000000000000000000000000000009E
:10630000000000000000000000000000000000008D
:10631000000000000000000000000000000000007D
:10632000000000000000000000000000000000006D
:10633000000000000000000000000000000000005D
:10634000000000000000000000000000000000004D
:10635000000000000000000000000000000000003D
:10636000000000000000000000000000000000002D
:10637000000000000000000000000000000000001D
:10638000000000000000000000000000000000000D
:1063900000000000000000000000000000000000FD
:1063A00000000000000000000000000000000000ED
:1063B0005DEF59CE0000000000000000000000006A
:1063C00000000000000000000000000059CE5DEF5A
:1063D00000000000000000000000000000000000BD
:1063E00000000000000000000000000000000000AD
:1063F000000000000000000000000000000000009D
:10640000000000000000000000000000000000008C
:10641000000000000000000000000000000000007C
:10642000000000000000000000000000000000006C
:10643000000000000000000000000000000000005C
:10644000000000000000000000000000000000004C
:10645000000000000000000000000000000000003C
:10646000000000000000000000000000000000002C
:10647000000000000000000000000000000000001C
:10648000000000000000000000000000000000000C
:1064900000000000000000000000000000000000FC
:1064A00014A5DBDEDBDEDBDEDBDEF7BD2000E31880
:1064B000FFFFD39C0000000000000000000000006F
:1064C000000000000000000000000000D39CFFFF5F
:1064D000E3182000F7BDDBDEDBDEDBDEDBDE14A550
:1064E00000000000000000000000000000000000AC
:1064F000000000000000000000000000000000009C
:10650000000000000000000000000000000000008B
:10651000000000000000000000000000000000007B
:10652000000000000000000000000000000000006B
:10653000000000000000000000000000000000005B
:10654000000000000000000000000000000000004B
:10655000000000000000000000000000000000003B
:10656000000000000000000000000000000000002B
:10657000000000000000000000000000000000001B
:10658000000000000000000000000000000000000B
:1065900000000000000000000000000000000000FB
:1065A00014A5DBDEDBDEDBDEDBDEF7BD2000E3187F
:1065B000FFFFD39C0000000000000000000000006E
:1065C000000000000000000000000000D39CFFFF5E
:1065D000E3182000F7BDDBDEDBDEDBDEDBDE14A54F
:1065E00000000000000000000000000000000000AB
:1065F000000000000000000000000000000000009B
:10660000000000000000000000000000000000008A
:10661000000000000000000000000000000000007A
:10662000000000000000000000000000000000006A
:10663000000000000000000000000000000000005A
:10664000000000000000000000000000000000004A
:10665000000000000000000000000000000000003A
:10666000000000000000000000000000000000002A
:10667000000000000000000000000000000000001A
:10668000000000000000000000000000000000000A
:1066900000000000000000000000000000000000FA
:1066A00000000000000000000000000000000000EA
:1066B0005DEF59CE00000000000000000000000067
:1066C00000000000000000000000000059CE5DEF57
:1066D00000000000000000000000000000000000BA
:1066E00000000000000000000000000000000000AA
:1066F000000000000000000000000000000000009A
:106700000000000000000000000000000000000089
:106710000000000000000000000000000000000079
:106720000000000000000000000000000000000069
:106730000000000000000000000000000000000059
:106740000000000000000000000000000000000049
:106750000000000000000000000000000000000039
:106760000000000000000000000000000000000029
:106770000000000000000000000000000000000019
:106780000000000000000000000000000000000009
:1067900000000000000000000000000000000000F9
:1067A00000000000000000000000000000000000E9
:1067B000B6B5DFFF821000000000000000000000FE
:1067C000000000000000000000008210DFFFB6B5EE
:1067D00000000000000000000000000000000000B9
:1067E00000000000000000000000000000000000A9
:1067F0000000000000000000000000000000000099
:106800000000000000000000000000000000000088
:106810000000000000000000000000000000000078
:106820000000000000000000000000000000000068
:106830000000000000000000000000000000000058
:106840000000000000000000000000000000000048
:106850000000000000000000000000000000000038
:106860000000000000000000000000000000000028
:106870000000000000000000000000000000000018
:106880000000000000000000000000000000000008
:1068900000000000000000000000000000000000F8
:1068A00000000000000000000000000000000000E8
:1068B000CB5AFFFF55AD00000000000000000000B3
:1068C0000000000000000000000055ADFFFFCB5AA3
:1068D00000000000000000000000000000000000B8
:1068E00000000000000000000000000000000000A8
:1068F0000000000000000000000000000000000098
:106900000000000000000000000000000000000087
:106910000000000000000000000000000000000077
:106920000000000000000000000000000000000067
:106930000000000000000000000000000000000057
:106940000000000000000000000000000000000047
:106950000000000000000000000000000000000037
:106960000000000000000000000000000000000027
:106970000000000000000000000000000000000017
:106980000000000000000000000000000000000007
:1069900000000000000000000000000000000000F7
:1069A00000000000000000000000000000000000E7
:1069B000000075ADFFFF4D6B0000000000000000FF
:1069C00000000000000000004D6BFFFF75AD0000EF
:1069D00000000000000000000000000000000000B7
:1069E00000000000000000000000000000000000A7
:1069F0000000000000000000000000000000000097
:106A00000000000000000000000000000000000086
:106A10000000000000000000000000000000000076
:106A20000000000000000000000000000000000066
:106A30000000000000000000000000000000000056
:106A40000000000000000000000000000000000046
:106A50000000000000000000000000000000000036
:106A60000000000000000000000000000000000026
:106A70000000000000000000000000000000000016
:106A80000000000000000000000000000000000006
:106A900000000000000000000000000000000000F6
:106AA00000000000000000000000000000000000E6
:106AB0000000C3185DEFFFFF55AD8210000000001D
:106AC00000000000821055ADFFFF5DEFC31800000D
:106AD00000000000000000000000000000000000B6
:106AE00000000000000000000000000000000000A6
:106AF0000000000000000000000000000000000096
:106B00000000000000000000000000000000000085
:106B10000000000000000000000000000000000075
:106B20000000000000000000000000000000000065
:106B30000000000000000000000000000000000055
:106B40000000000000000000000000000000000045
:106B50000000000000000000000000000000000035
:106B60000000000000000000000000000000000025
:106B70000000000000000000000000000000000015
:106B80000000000000000000000000000000000005
:106B900000000000000000000000000000000000F5
:106BA00000000000000000000000000000002000C5
:106BB000A6310000C31875ADFFFFDFFF59CED39C8F
:106BC000D39C59CEDFFFFFFF75ADC3180000A6317F
:106BD0002000000000000000000000000000000095
:106BE00000000000000000000000000000000000A5
:106BF0000000000000000000000000000000000095
:106C00000000000000000000000000000000000084
:106C10000000000000000000000000000000000074
:106C20000000000000000000000000000000000064
:106C30000000000000000000000000000000000054
:106C40000000000000000000000000000000000044
:106C50000000000000000000000000000000000034
:106C60000000000000000000000000000000000024
:106C70000000000000000000000000000000000014
:106C80000000000000000000000000000000000004
:106C900000000000000000000000000000000000F4
:106CA000000000000000000000000000200096B579
:106CB000FFFFA63100000000CB5AB6B55DEFFFFF25
:106CC000FFFF5DEFB6B5CB5A00000000A631FFFF15
:106CD00096B5200000000000000000000000000049
:106CE00000000000000000000000000000000000A4
:106CF0000000000000000000000000000000000094
:106D00000000000000000000000000000000000083
:106D10000000000000000000000000000000000073
:106D20000000000000000000000000000000000063
:106D30000000000000000000000000000000000053
:106D40000000000000000000000000000000000043
:106D50000000000000000000000000000000000033
:106D60000000000000000000000000000000000023
:106D70000000000000000000000000000000000013
:106D80000000000000000000000000000000000003
:106D900000000000000000000000000000000000F3
:106DA00000000000000000000000200096B5FFFF7A
:106DB00096B5200000000000000000000000E3186D
:106DC000E31800000000000000000000200096B55D
:106DD000FFFF96B52000000000000000000000004A
:106DE00000000000000000000000000000000000A3
:106DF0000000000000000000000000000000000093
:106E00000000000000000000000000000000000082
:106E10000000000000000000000000000000000072
:106E20000000000000000000000000000000000062
:106E30000000000000000000000000000000000052
:106E40000000000000000000000000000000000042
:106E50000000000000000000000000000000000032
:106E60000000000000000000000000000000000022
:106E70000000000000000000000000000000000012
:106E80000000000000000000000000000000000002
:106E900000000000000000000000000000000000F2
:106EA0000000000000000000200096B5FFFF96B52E
:106EB0002000000000000000000000000000200092
:106EC0002000000000000000000000000000200082
:106ED00096B5FFFF96B520000000000000000000FE
:106EE00000000000000000000000000000000000A2
:106EF0000000000000000000000000000000000092
:106F00000000000000000000000000000000000081
:106F10000000000000000000000000000000000071
:106F20000000000000000000000000000000000061
:106F30000000000000000000000000000000000051
:106F40000000000000000000000000000000000041
:106F50000000000000000000000000000000000031
:106F60000000000000000000000000000000000021
:106F70000000000000000000000000000000000011
:106F80000000000000000000000000000000000001
:106F900000000000000000000000000000000000F1
:106FA00000000000000000008E73FFFF96B5200077
:106FB0000000000000000000000000000000F7BD1D
:106FC000F7BD00000000000000000000000000000D
:106FD000200096B5FFFF8E73000000000000000047
:106FE00000000000000000000000000000000000A1
:106FF0000000000000000000000000000000000091
:107000000000000000000000000000000000000080
:107010000000000000000000000000000000000070
:107020000000000000000000000000000000000060
:107030000000000000000000000000000000000050
:107040000000000000000000000000000000000040
:107050000000000000000000000000000000000030
:107060000000000000000000000000000000000020
:107070000000000000000000000000000000000010
:107080000000000000000000000000000000000000
:1070900000000000000000000000000000000000F0
:1070A000000000000000000004218E73200000009A
:1070B0000000000000000000000000000000DBDE17
:1070C000DBDE000000000000000000000000000007
:1070D000000020008E73042100000000000000006A
:1070E00000000000000000000000000000000000A0
:1070F0000000000000000000000000000000000090
:10710000000000000000000000000000000000007F
:10711000000000000000000000000000000000006F
:10712000000000000000000000000000000000005F
:10713000000000000000000000000000000000004F
:10714000000000000000000000000000000000003F
:10715000000000000000000000000000000000002F
:10716000000000000000000000000000000000001F
:10717000000000000000000000000000000000000F
:1071800000000000000000000000000000000000FF
:1071900000000000000000000000000000000000EF
:1071A00000000000000000000000000000000000DF
:1071B0000000000000000000000000000000DBDE16
:1071C000DBDE000000000000000000000000000006
:1071D00000000000000000000000000000000000AF
:1071E000000000000000000000000000000000009F
:1071F000000000000000000000000000000000008F
:10720000000000000000000000000000000000007E
:10721000000000000000000000000000000000006E
:10722000000000000000000000000000000000005E
:10723000000000000000000000000000000000004E
:10724000000000000000000000000000000000003E
:10725000000000000000000000000000000000002E
:10726000000000000000000000000000000000001E
:10727000000000000000000000000000000000000E
:1072800000000000000000000000000000000000FE
:1072900000000000000000000000000000000000EE
:1072A00000000000000000000000000000000000DE
:1072B0000000000000000000000000000000DBDE15
:1072C000DBDE000000000000000000000000000005
:1072D00000000000000000000000000000000000AE
:1072E000000000000000000000000000000000009E
:1072F000000000000000000000000000000000008E
:10730000000000000000000000000000000000007D
:10731000000000000000000000000000000000006D
:10732000000000000000000000000000000000005D
:10733000000000000000000000000000000000004D
:10734000000000000000000000000000000000003D
:10735000000000000000000000000000000000002D
:10736000000000000000000000000000000000001D
:10737000000000000000000000000000000000000D
:1073800000000000000000000000000000000000FD
:1073900000000000000000000000000000000000ED
:1073A00000000000000000000000000000000000DD
:1073B0000000000000000000000000000000DBDE14
:1073C000DBDE000000000000000000000000000004
:1073D00000000000000000000000000000000000AD
:1073E000000000000000000000000000000000009D
:1073F000000000000000000000000000000000008D
:10740000000000000000000000000000000000007C
:10741000000000000000000000000000000000006C
:10742000000000000000000000000000000000005C
:10743000000000000000000000000000000000004C
:10744000000000000000000000000000000000003C
:10745000000000000000000000000000000000002C
:10746000000000000000000000000000000000001C
:10747000000000000000000000000000000000000C
:1074800000000000000000000000000000000000FC
:1074900000000000000000000000000000000000EC
:1074A00000000000000000000000000000000000DC
:1074B000000000000000000000000000000014A513
:1074C00014A5000000000000000000000000000003
:1074D00000000000000000000000000000000000AC
:1074E000000000000000000000000000000000009C
:1074F000000000000000000000000000000000008C
:10750000000000000000000000000000000000007B
:1086000000000000000000000000FFFFFFFFFFFF70
:10861000FFFFFFFFFFFFFFFFFFFFFFFFFFFFFFFF6A
:10862000FFFFFFFFFFFFFFFFFFFFFFFFFFFFFFFF5A
:10863000FFFFFFFFFFFFFFFFFFFFFFFFFFFFFFFF4A
:10864000FFFFFFFFFFFFFFFFFFFFFFFFFFFFFFFF3A
:10865000FFFFFFFFFFFFFFFFFFFFFFFFFFFFFFFF2A
:10866000FFFFFFFFFFFFFFFFFFFFFFFFFFFFFFFF1A
:10867000FFFFFFFFFFFFFFFFFFFFFFFFFFFFFFFF0A
:10868000FFFFFFFFFFFFFFFFFFFFFFFFFFFFFFFFFA
:10869000FFFFFFFFFFFFFFFFFFFFFFFFFFFFFFFFEA
:1086A000FFFFFFFFFFFFFFFFFFFFFFFFFFFFFFFFDA
:1086B000FFFFFFFFFFFFFFFFFFFFFFFFFFFFFFFFCA
:1086C000FFFFFFFFFFFFFFFFFFFFFFFFFFFFFFFFBA
:1086D000FFFFFFFFFFFFFFFFFFFFFFFFFFFF0000A8
:1086E000000000000000000000000000000000008A
:1086F000000000000000000000000000000000007A
:1087000000000000000000000000FFFFFFFFFFFF6F
:10871000FFFFFFFFFFFFFFFFFFFFFFFFFFFFFFFF69
:10872000FFFFFFFFFFFFFFFFFFFFFFFFFFFFFFFF59
:10873000FFFFFFFFFFFFFFFFFFFFFFFFFFFFFFFF49
:10874000FFFFFFFFFFFFFFFFFFFFFFFFFFFFFFFF39
:10875000FFFFFFFFFFFFFFFFFFFFFFFFFFFFFFFF29
:10876000FFFFFFFFFFFFFFFFFFFFFFFFFFFFFFFF19
:10877000FFFFFFFFFFFFFFFFFFFFFFFFFFFFFFFF09
:10878000FFFFFFFFFFFFFFFFFFFFFFFFFFFFFFFFF9
:10879000FFFFFFFFFFFFFFFFFFFFFFFFFFFFFFFFE9
:1087A000FFFFFFFFFFFFFFFFFFFFFFFFFFFFFFFFD9
:1087B000FFFFFFFFFFFFFFFFFFFFFFFFFFFFFFFFC9
:1087C000FFFFFFFFFFFFFFFFFFFFFFFFFFFFFFFFB9
:1087D000FFFFFFFFFFFFFFFFFFFFFFFFFFFF0000A7
:1087E0000000000000000000000000000000000089
:1087F0000000000000000000000000000000000079
:1088000000000000000000000000FFFFFFFFFFFF6E
:10881000FFFFFFFFFFFFFFFFFFFFFFFFFFFFFFFF68
:10882000FFFFFFFFFFFFFFFFFFFFFFFFFFFFFFFF58
:10883000FFFFFFFFFFFFFFFFFFFFFFFFFFFFFFFF48
:10884000FFFFFFFFFFFFFFFFFFFFFFFFFFFFFFFF38
:10885000FFFFFFFFFFFFFFFFFFFFFFFFFFFFFFFF28
:10886000FFFFFFFFFFFFFFFFFFFFFFFFFFFFFFFF18
:10887000FFFFFFFFFFFFFFFFFFFFFFFFFFFFFFFF08
:10888000FFFFFFFFFFFFFFFFFFFFFFFFFFFFFFFFF8
:10889000FFFFFFFFFFFFFFFFFFFFFFFFFFFFFFFFE8
:1088A000FFFFFFFFFFFFFFFFFFFFFFFFFFFFFFFFD8
:1088B000FFFFFFFFFFFFFFFFFFFFFFFFFFFFFFFFC8
:1088C000FFFFFFFFFFFFFFFFFFFFFFFFFFFFFFFFB8
:1088D000FFFFFFFFFFFFFFFFFFFFFFFFFFFF0000A6
:1088E0000000000000000000000000000000000088
:1088F0000000000000000000000000000000000078
:1089000000000000000000000000FFFFFFFFFFFF6D
:10891000FFFFFFFFFFFFFFFFFFFFFFFFFFFFFFFF67
:10892000FFFFFFFFFFFFFFFFFFFFFFFFFFFFFFFF57
:10893000FFFFFFFFFFFFFFFFFFFFFFFFFFFFFFFF47
:10894000FFFFFFFFFFFFFFFFFFFFFFFFFFFFFFFF37
:10895000FFFFFFFFFFFFFFFFFFFFFFFFFFFFFFFF27
:10896000FFFFFFFFFFFFFFFFFFFFFFFFFFFFFFFF17
:10897000FFFFFFFFFFFFFFFFFFFFFFFFFFFFFFFF07
:10898000FFFFFFFFFFFFFFFFFFFFFFFFFFFFFFFFF7
:10899000FFFFFFFFFFFFFFFFFFFFFFFFFFFFFFFFE7
:1089A000FFFFFFFFFFFFFFFFFFFFFFFFFFFFFFFFD7
:1089B000FFFFFFFFFFFFFFFFFFFFFFFFFFFFFFFFC7
:1089C000FFFFFFFFFFFFFFFFFFFFFFFFFFFFFFFFB7
:1089D000FFFFFFFFFFFFFFFFFFFFFFFFFFFF0000A5
:1089E0000000000000000000000000000000000087
:1089F0000000000000000000000000000000000077
:108A000000000000000000000000FFFFFFFFFFFF6C
:108A1000FFFFFFFFFFFFFFFFFFFFFFFFFFFFFFFF66
:108A2000FFFFFFFFFFFFFFFFFFFFFFFFFFFFFFFF56
:108A3000FFFFFFFFFFFFFFFFFFFFFFFFFFFFFFFF46
:108A4000FFFFFFFFFFFFFFFFFFFFFFFFFFFFFFFF36
:108A5000FFFFFFFFFFFFFFFFFFFFFFFFFFFFFFFF26
:108A6000FFFFFFFFFFFFFFFFFFFFFFFFFFFFFFFF16
:108A7000FFFFFFFFFFFFFFFFFFFFFFFFFFFFFFFF06
:108A8000FFFFFFFFFFFFFFFFFFFFFFFFFFFFFFFFF6
:108A9000FFFFFFFFFFFFFFFFFFFFFFFFFFFFFFFFE6
:108AA000FFFFFFFFFFFFFFFFFFFFFFFFFFFFFFFFD6
:108AB000FFFFFFFFFFFFFFFFFFFFFFFFFFFFFFFFC6
:108AC000FFFFFFFFFFFFFFFFFFFFFFFFFFFFFFFFB6
:108AD000FFFFFFFFFFFFFFFFFFFFFFFFFFFF0000A4
:108AE0000000000000000000000000000000000086
:108AF0000000000000000000000000000000000076
:108B000000000000000000000000FFFFFFFFFFFF6B
:108B1000FFFFFFFFFFFFFFFFFFFFFFFFFFFFFFFF65
:108B2000FFFFFFFFFFFFFFFFFFFFFFFFFFFFFFFF55
:108B3000FFFFFFFFFFFFFFFFFFFFFFFFFFFFFFFF45
:108B4000FFFFFFFFFFFFFFFFFFFFFFFFFFFFFFFF35
:108B5000FFFFFFFFFFFFFFFFFFFFFFFFFFFFFFFF25
:108B6000FFFFFFFFFFFFFFFFFFFFFFFFFFFFFFFF15
:108B7000FFFFFFFFFFFFFFFFFFFFFFFFFFFFFFFF05
